:020000040000FA
:060000000A128A11FC2F18
:100F80008316031388018312031308140230F2003E
:100F90000430F100BA30F000F00BCC2FF10BCC2F65
:100FA000F20BCC2F000083120313081083120313DB
:100FB00088140230F2000430F100BA30F000F00B77
:100FC000DF2FF10BDF2FF20BDF2F00008312031353
:100FD0008810831203130815D030F100C930F000D7
:100FE000F00BF02FF10BF02FF52F831203130811E4
:100FF000C32F0A128A11002883010A128A11C02FF6
:02400E00FF3F72
:00000001FF
